:020000040800F2
:10000000000002201D5700086557000865570008CA
:100010006557000865570008655700080000000094
:10002000000000000000000000000000655700080C
:100030006557000800000000655700086557000874
:1000400065570008655700086557000865570008A0
:100050006557000865570008655700086557000890
:100060006557000865570008655700086557000880
:100070006557000865570008655700086557000870
:100080006557000865570008655700086557000860
:100090006557000865570008655700086557000850
:1000A0006557000865570008655700086557000840
:1000B000114100086557000865570008655700089A
:1000C0006557000865570008655700086557000820
:1000D00065570008393B0008655700086557000858
:1000E0006557000865570008655700086557000800
:1000F00065570008655700086557000865570008F0
:1001000065570008655700086557000865570008DF
:1001100065570008655700086557000865570008CF
:1001200065570008655700086557000865570008BF
:1001300065570008655700086557000865570008AF
:10014000655700086557000865570008655700089F
:10015000655700086557000865570008655700088F
:10016000655700086557000865570008655700087F
:10017000655700086557000865570008655700086F
:080180006557000865570008EF
:10019000044B05481B1A062B02D9044B03B1184720
:1001A000704700BFAF000020AC000020000000003E
:1001B00005490648091A891001EBD171491002D08E
:1001C000034B03B118477047AC000020AC0000207F
:1001D0000000000010B5064C237843B9FFF7D8FFA4
:1001E000044B13B10448AFF300800123237010BD0A
:1001F000B000002000000000D874000808B5084BCB
:100200001BB108490848AFF300800848036813B9D8
:10021000BDE80840CCE7064B002BF9D09847F7E73C
:1002200000000000B4000020D8740008A8000020DE
:1002300000000000154B002B08BF134B9D46A3F593
:10024000803A00218B460F461348144A121A05F0D3
:1002500021FB0F4B002B00D098470E4B002B00D0FA
:1002600098470020002104000D000D48002802D00E
:100270000C48AFF3008005F0BDFA2000290003F020
:10028000EFFF05F0A3FA00BF000008000000000027
:100290000000000000000000B0000020F4BA0020C0
:1002A00000000000000000002DE9F04F4668B28910
:1002B000130A43EA02231BB2B3F5006F8FB0044662
:1002C0000D460FD040F606018B4205D135B143896A
:1002D000292B00F29280204602F020F900200FB076
:1002E000BDE8F08F39B14A68D6F81A3089685340B2
:1002F0000B4000F033826FF00D01204602F0D8FA77
:100300000028E8D167683A88130A43EA02239BB2BF
:100310001A13042ADFD179886089C3F303230A0AF8
:100320004FEA830842EA0121404589B2D3D32389A9
:100330008B42D0D3204603F0BBF99F4B4FF001090D
:10034000D3F800B023462E464C4607F1100A9946D2
:1003500096F83130DB0740F110827368002B00F013
:100360000C823A69934206D03146504603F094FD20
:10037000002800F00282D7F80C804C46B8F1000F3C
:1003800040F01082FB8823F0C003002B40F0BC82B9
:100390006368DFF82CB2B3F80880DBF800604FEA3E
:1003A0001828002E00F0D1830C3305950FFA88F839
:1003B0004FF00009A2461D4605E0F368B146002B48
:1003C00000F0C1831E46337C9845F6D174693146EE
:1003D0002B465246002CF0D0B069A0470028ECD044
:1003E000B9F1000F3FF47AAFF268DBF80030C9F8DA
:1003F0000C20CBF80060F36070E7F389B3F5807FE1
:100400007FF469AF718A40F2064399427FF463AF8B
:10041000338A082B7FF45FAFB2F5C16F7FF45BAF17
:100420006B6A002B00F0B4831B7906F11C08002BCB
:1004300040F0D98106F1260A06F116070DF12C09C4
:100440000DF1300B04224146484605F018FA51469A
:100450005846042205F013FA6B68002B00F0B781B0
:100460000C9A934240F0B38101233A46494628460C
:1004700002F0D0FEB28A130243EA12231BB2012B10
:1004800000F01682022B7FF426AF2E6A002E3FF476
:1004900022AFB37C082B7FF41EAF0B9AB36A9A424B
:1004A0007FF419AF0C230022B374F2742F6A002F6B
:1004B00000F04D8110464FF49A7103F00FFA786105
:1004C000002800F04481FB7C002B00F0E0853B4BD2
:1004D00042685968BA61012339601370BA69537070
:1004E000BB6906229A70BB694FF0000883F803804D
:1004F000BA693868059203F021FD059A82F80880F0
:10050000506082F8098082F80A8082F80B8082F8B5
:100510000C8082F80D8082F80E8082F80F80BB7C00
:100520000A2B00F0B085043B012B40F2AC85002380
:10053000137453749374D374137553759375D3757F
:10054000137653769376D37605F12B0100E0BA69E2
:1005500095F82AE098B286451A4403F101038CBF4E
:1005600008780020102B107701F10101EFD1002352
:100570001946BA691A440133402B82F82C10F8D17D
:1005800000231846BA691A440133802B82F86C00A4
:100590004FF00001F6D1BA696FF07D0382F8ED30BB
:1005A0005320632382F8EC3082F8EF3082F8EE00BB
:1005B0000B46B98307E000BFC8BA00200400002042
:1005C000CC000020BA691A4482F8F0300133442B81
:1005D000F8D1B38BB2691A4435210133B38382F861
:1005E000F010B38BB2691A4401210133B38382F84E
:1005F000F010B38BB2691A440B440421B38382F820
:10060000F010B38BB2691A4432200133B38382F8FD
:10061000F000B38BB2691A440133B38382F8F0104F
:10062000B06A03F08BFCB38BB2691A44010E01333C
:10063000B38382F8F010B38BB2691A44010C013312
:10064000B38382F8F010B38BB2691A44010A013304
:10065000B38382F8F010B38BB2691A440133B383C9
:1006600082F8F000B38BB2691A44FF210133B383DF
:10067000002082F8F01004E0B269B183134483F8DB
:10068000F000B38B432B03F10101F5D99F07F3D1A0
:1006900003F1F00189B2706903F00AF87768D6F8BF
:1006A00014907B8AFBB9DFF864B5DBF804100029ED
:1006B00000F0EC870A46BA4208BF0123D268002A3C
:1006C000F9D108464FF4805247F6FF7EB0F812C0C9
:1006D000944500F00185C0680028F7D17A8213B9EB
:1006E000F960CBF804700821484602F0E1F80028D0
:1006F00000F0148500220821012003F0EFF8804665
:10070000E0B1494601F0C6FE788AD8F8043039686D
:10071000020A42EA00221A804322DA7000229A700A
:100720009A71DA71002900F0E5846A68914200F05C
:100730008485C14502D0404601F0F0FE2D6A35B1F6
:10074000686908B101F0EAFE00236B61AB61F37CDC
:1007500014220133F374F2832046BDE506F11A0139
:10076000B21D284602F056FD6FF00D01204602F042
:100770009FF800287FF4AFADC4E534BB3668B542BE
:1007800008BF2E680024002E7FF4E2AD3B891B0ACF
:10079000112B4C4600F0D284D7F80C80B8F1000F32
:1007A0003FF499AD294607F10C0003F075FB0028D2
:1007B0007FF491AD08F0F008B8F1E00F3FF48BAD95
:1007C000002E7FF4DFAD204686E55E46D7E73A4649
:1007D00000234946284602F01DFDB28A130A43EA67
:1007E00002231BB24EE695F82B3095F82C2095F895
:1007F0002D0095F82EE095F82F708DF83030414699
:1008000095F830308DF831208DF8320004220AA896
:1008100006F1260A0DF12C098DF835308DF833E0FC
:100820008DF8347005F02BF804225146484605F047
:1008300026F86B6A1A79012A21D09A88022A1ED0DA
:100840001B680A9A9A4206F116070DF1300B7FF4E5
:10085000F9AD39465846062205F002F800283FF463
:10086000F1AD6B6A1A7AFAB905F12B0200931146C1
:10087000284601F01BF96B6A64221A72E2E51B68D4
:100880000A9A9A4200F0B8810B9A934206F1160731
:100890000DF1300B7FF4D6AD39465846062204F0F0
:1008A000DFFF00283FF4CEAD284603F083FBC9E507
:1008B0000222D8F800307275002104223175C6F882
:1008C00026304046A91804F0DAFF6B6A23B11A7982
:1008D000CC4B002A18BF1F460623013BDBB2F2189F
:1008E000E918907D82F82000F85CF05491F82B0014
:1008F000907591F82B109171002BEED1AB692846C1
:10090000214698472046E7E4D4F80480B8F800A0D0
:100910000AF00F0ABAF1050F7FF4DDACB8F8063023
:100920000593B8F80230DFF8E8920693204601F00C
:10093000EBFDB9F8003003440A2B834600F36A81CB
:10094000B14B1E68002E00F02681D8F80C2000273D
:1009500005E033683746002B00F01D811E467369A1
:100960009342F6D1D8F81030B1699942F1D1B189EA
:10097000B8F804309942ECD1B8F80620130A43EADB
:10098000022292B2C2F30C03002B00F05381B9F89B
:100990000080D8441FFA88F89004A9F8008013D486
:1009A000059B06991A0A42EA03220B0A43EA01232D
:1009B000C2F30C02B17F03EBC203A3EB8A0A41F03E
:1009C0000103A6F81CA0B377D4F804A0BAF8060077
:1009D000BAF80210BAF80020030A43EA0020C0F374
:1009E0000C000B0AC00043EA01230021034402F07B
:1009F0000F0B8AF800108AF801108AF802108AF8A2
:100A00000310A3EB8B0B7368AAF804001FFA8BFB8F
:100A1000AAF806B0002B00F05C845A6891888842DE
:100A2000C0F0D48300F0DC80D388834200F2D88009
:100A30004FF0010C11E04B68B3F804E07045C0F0D2
:100A40000F8100F0CD80D988814200F2C980D18821
:100A50001A46714518BF4FF0000C11680029EAD101
:100A6000D388146083427FF439ACB37FDA077FF513
:100A700035ACBCF1000F3FF431AC73685C68A388FF
:100A8000002B7FF42BACDAF8003073B15B689A88E6
:100A90005A4507D022E45268D988938899427FF456
:100AA0001DAC13461A68002AF5D1B38BD4F8008028
:100AB0001433B383142206F10801204604F0DFFE4C
:100AC000B28B130A43EA022200236280A371E3710E
:100AD000A372E3722046142103F0FCF9C043608145
:100AE0007468B8F1000F12D02346AA4644469846CF
:100AF00065686FF01301204601F0DAFE214640469A
:100B000001F0EAFC2C68002CF2D1444655463E4BDD
:100B10003D4A1B689E42336818BF3B6031464FF028
:100B2000050008BF136002F051FE204601F0ECFC06
:100B3000B9F80030181AA9F80000002C3FF4CEAB29
:100B400067683B4625E4059D54463B891B0A062BF6
:100B500000F0F380112B00F08C80012B00F0E88175
:100B6000294607F1100003F097F900287FF4B3AB92
:100B70003B6903F0F003E02B3FF4ADAB20460222CB
:100B800040F8047F032103F0DBF92046FFF7A4BB04
:100B900006F11C084EE4052002F022FE0346002860
:100BA00000F08683202200211846079304F072FE8D
:100BB000154B154F1A68079B1A600322DA774146D6
:100BC000142203F108003B6004F059FEB8F8061047
:100BD000079B0A0A42EA0122374692B21E46D6E62F
:100BE000204601F091FCC0EB08082046A9F80080DF
:100BF00001F094FCFFF772BB06F116070DF1300B04
:100C000052E600BF34720008E0B30020CC000020A0
:100C1000E4B300200146404600F0EAFF00283FF41C
:100C20005AABB9F800305B440A2B7FF789AE2046F7
:100C3000FFF752BBF1890B0A43EA0123C3F30C030C
:100C4000002B3FF4A4AE1422414606F1080004F044
:100C500016FEB8F80620130A43EA022292B296E67C
:100C6000CAF80010D3888342BAD8F345B8D81460C4
:100C7000FBE6D4F804802289B8F8003003F00F03B3
:100C8000991CB2EB810FFFF626AB99004942204632
:100C900001F00EFE064600287FF41DAB676829466A
:100CA00008F1100003F0F8F87988B7F800900B0A03
:100CB00043EA012189B24FEA192343EA0929442969
:100CC00082461FFA89F900F04982DBF80400002807
:100CD00000F052823246374686460646504605E0C8
:100CE000F3683246002B00F0DE811E46738A8B4289
:100CF000F6D128B933681BB1D8F810C06345EFD1DD
:100D0000002F00F0CA81B38A4B45E9D173681BB14B
:100D1000D8F80CC06345E3D12AB1F368D360CBF8AF
:100D20000460C6F80CE06FF00701204601F0C0FD3A
:100D300000287FF4D0AA3746C0E16668CBF8086087
:100D4000B6F8009009F00F094FEA890106EB010897
:100D500020464942CBF80C8001F0AAFD00287FF420
:100D6000BAAA2389132B7FF6B6AA06F110032946E7
:100D70001846069303F090F800287FF4ACAA336974
:100D800003F0F003E02B3FF4A6AAB8F80C30C3F34D
:100D90000313C3EB8333990009B2204601F088FDA9
:100DA000054600287FF497AAB8F800703B0A43EA8A
:100DB0000727BBB226F829300593B8F80290D8F877
:100DC00004004FEA192343EA09291FFA89F9A8F810
:100DD000029003F0B3F8C44BC8F8040018618246CF
:100DE000D8F8080003F0AAF8BF4B5861B8F80C1007
:100DF000238908930A0A42EA012292B2B8F80E70D7
:100E00000992D2B212F0030118BF01211944B64B66
:100E1000C8F80800DB690793B34B02F03F0E83F874
:100E200018E089B24FEA172E59834EEA0723A8F833
:100E30000E30079B002B00F07581AE46059F1D46C6
:100E400005E0EB68AE46002B00F06B811D462B8C55
:100E5000BB42F6D12B8B4B45F3D1D6F80CC06B6857
:100E60006345EED1D6F810C02B686345E9D1BEF1D9
:100E7000000F06D0EB68CEF80C30079BCBF81C5067
:100E8000EB60BDF82030EA6F6168ABF848300023B2
:100E9000CBF83C30CBF838308BF83030CBF84410FE
:100EA000CBF84040CBF84C805AB1D5F88460002E86
:100EB00000F0F18329466869B04700287FF40BAA47
:100EC000E8679BF81840CBF82C506207864B40F13E
:100ED00011822A7C022A00F030821B696A6A9B1AFE
:100EE00004D42A8D9B1A002B40F32C829BF83030BF
:100EF0001C0740F1A481D5F890301BB16FF00501BB
:100F0000686998472946794801F0A2FB29460220E2
:100F100002F05CFCDBF84000734D0024CBF82C4061
:100F200000283FF4DBA901F0F9FA2C64FFF7D6B9E9
:100F30006768B7F8008008F00F084FEA8808C8F122
:100F400000094946204601F0B3FC00287FF4C3A9FC
:100F50002689032E7FF6BFA963681B78082B7FF4D0
:100F6000BAA9294607F1100002F096FF00287FF485
:100F7000B2A93B6903F0F003E02B3FF4ACA9072EC4
:100F80007FF6A9A982460646A346BBF80A30DBF8DD
:100F900004000593194602F09DFF059B304486B27C
:100FA000DB0706EB104608D53302CAF1010A9BB2F3
:100FB000C6F307265FFA8AFA1E43DBF800B0BBF1DE
:100FC000000FE2D1BAF1000F04D033029BB2C6F396
:100FD00007261E43B6B24FF6FF739E427FF47BA9ED
:100FE000222120461FFA88F601F062FC002800F05A
:100FF000778136B23146204601F05AFC024600287D
:101000007FF469A92189022002F068FC804600284B
:101010003FF461A9214601F0E5F900287FF45BA9BE
:1010200049464046D8F8047001F042FC00287FF49D
:1010300052A9204601F072FA444663683A69F96899
:10104000FA60002239611A709A70DA703B89BA72BC
:1010500003F47F4343F0FF03FA7231463B8120469D
:1010600001F026FC024600287FF435A901230090F8
:101070000193029507F10C01FF23204600F040FE8A
:101080002046FFF729B96B68D360FFF750BA184BB9
:101090005A6801325A60FFF71BBA337C13F0040F11
:1010A00008BF37462FE68246002F65D06FF0070154
:1010B000204601F0FDFB00287FF40DA9BD69002D3D
:1010C0003FF409A9CDF8009008F10C032246F86915
:1010D0003946A847FFF702B9013292B272453FF490
:1010E0002DAB0846FFF7F2BACC000020E800002044
:1010F00004000020291DB8F808E0994A4FEA1E2094
:1011000040EA0E2098801120FB7A02950190B87A6F
:101110000090404600F0F4FDFFF70BBBC846FFF718
:10112000F3BA0597DBF82850059F9646002D00F08E
:10113000B8822B8CBB424FD0ED68F7E7B844B8F8C3
:101140000220130A43EA02231BB2442B7FF424AB90
:101150002E46002E7FF416A9FFF735BBB9F1430FD9
:101160000AD12B6A43B15F6837B17B68002B9DD0F1
:10117000D8F80C20934299D06A68D8F810309A4277
:101180007FF4A9A86FF00701204601F091FB002829
:101190007FF4A1A8BAF1000F7FF49DA8D8F8103011
:1011A00003F0F003E02B3FF496A8B8F8001001F02C
:1011B0000F0102318900204601F07AFB0322201D35
:1011C000114602F0BDFE2046FFF786B8CAF800308F
:1011D0004FF0010C746048E42B8B4B45ACD1F368A5
:1011E0006A689A42A8D133692A689A42A4D15FEA10
:1011F0004E7305973FF56FA85FEA8E7340F17183D8
:101200006B6AC3EB0A02002A08DB2A8D1344C3EB86
:101210000A03002BD8BF3B4640F3518300293FF41B
:101220005AA895F8223043F0020385F82230284668
:1012300002F0B8F82046FFF74FB839465BE7D8060A
:101240003FF560AEB5F86C202AB1D5F8803013B107
:10125000294668699847DBF83820424B9AB11B7ED3
:10126000190703D5537B43F001035373D5F884402A
:10127000002C00F03083002329466869A04710B194
:10128000DBF83830EB679BF830309A0609D5D5F893
:101290008440002C00F02C8300231A4629466869FC
:1012A000A04700232846CBF82C3002F07BF831E62B
:1012B0005946404600F09CFC83453FF70CA80520AA
:1012C00002F08EFA034600287FF46CAC2046FFF74C
:1012D00003B8B37F7460D9073FF5CFABFEF7FEBF0D
:1012E0006FF02101204601F0E3FA00287EF4F3AF0D
:1012F00036B2A2E604F0020303F0FF0623B12B7C12
:10130000023B012B00F28380DBF820302B630023AB
:1013100085F89D3005F1380002F06CF92B7C023B1A
:10132000072B3FF6E3ADDFE813F067010B0138014F
:10133000E400AE00380191007C005B69AA6D9A421E
:101340007FF4D4AD9BF8302095F8223042F00802AB
:1013500023F001038BF8302085F82230C6E500BF6A
:1013600060710008CC000020AE6F3369586802F04D
:10137000E5FDDBF81430AF490130984240F041817F
:101380000B69B5F86E20E864C9682C8F581C0132CF
:101390006862E862A5F86E208A7BC97B013B42EA5D
:1013A00001220421A5F85C202B662974681802F03C
:1013B00053FD30B1038D23B1283B9BB29C4228BF23
:1013C0001C4604EB8403B5F852202C875B00012AED
:1013D000A5F85430B5F870303268AA6704BF6400CD
:1013E000A4B2013BA5F85240A5F87030002A00F0E5
:1013F00049810023EB8685F84A30304601F0F8F841
:10140000D5F888301BB1002229466869984795F8BD
:10141000223043F0020385F82230284601F0C2FF53
:1014200064E5284601F07AFA9BF81820814BD6062D
:101430007FF55CADA96D5A6991427FF457AD93F881
:10144000302042F0100283F830204FE5284601F0AA
:1014500065FA9BF81830774CDF067FF547ADAA6D2B
:1014600063699A427FF442AD284601F0CBF9E36903
:101470009D423BD0636300229BB3D9688D4223D049
:101480000B460122F8E7284601F048FA9BF8303075
:10149000684C9B067FF52AAD95F8223043F0020395
:1014A00085F82230284601F07DFF284601F0AAF990
:1014B000E3699D421AD06363002293B1D9688D42DB
:1014C00002D00B460122F8E70AB1CBF83430EA68C3
:1014D000DA60DBF82830EB600A222A74CBF8285057
:1014E00004E5002AF5D0CBF83430F2E7EB68E3618D
:1014F000EFE7284601F012FA9BF830304D4C13F01C
:10150000200F237E11D0D90603D5AA6D63699A42B4
:1015100057D095F8223043F0020385F82230284650
:1015200001F040FF08232B74E0E4DA067FF5DEAC1F
:101530006369AA6D9A427FF4D9AC06232B74D5E473
:10154000E7061CD5EB6CDBF81400DB43C34203D485
:10155000AB6DC31A002B6FDDDBF80C30DBF8082015
:1015600019880191BBF81A40DBF810105B880093D2
:10157000214402F10C03103201F0A4FEB6E4002E67
:101580003FF4B4AC6B6ADBF81020013B93427FF46C
:10159000ADAC284604F09CF8A8E4284601F0BEF95A
:1015A0009BF8303098067FF5A1AC95F8223043F0D7
:1015B000020385F82230284601F0F4FE07232B743D
:1015C00094E495F8223043F0020385F8223028464F
:1015D00001F0E8FE284601F015F9E3699D4285D047
:1015E00063630022002B3FF47CAFD9688D423FF447
:1015F0006BAF0B460122F5E704F01203122B3FF408
:10160000B3AEE3067FF572ACDBF80C30DBF80820F4
:1016100019880191BBF81A00DBF810105B88009361
:10162000014402F10C03DBF81400103201F04AFE11
:101630005CE400BFCC000020EB6904222A7423B1D3
:101640000022294668699847B8B92846B5F852403B
:1016500001F064F9B5F86C3013B1013BA5F86C30BA
:101660002B8F9BF83020012C04BF5B009BB29406AB
:10167000A5F852307FF53AAC97E72846012101F0F2
:10168000C9F847E44FF6FF73EB86B6E64FF4805394
:101690007B82FFF725B833463046294601F06EF8C5
:1016A0000BE47246DBF824E02B4698467546002D85
:1016B00000F0FF802B6833B1D6F810C0634502D02C
:1016C000A846ED68F3E7B5F818C0CC45F8D1434615
:1016D000059733B1EF68C8F80C70CBF82450C5F803
:1016E0000CE0D70600F1D78091077EF5F4AD02201B
:1016F0006F7C02F075F80646002800F08880A02272
:101700000021304604F0C6F87B4ADBF8200013685D
:10171000306303441360736640F66832B365F36464
:10172000B36640200023DBF808107074B37286F8AB
:10173000343086F89D30A6F86E2032857285A6F882
:101740007030A6F84430FF2006234FF40672F07282
:101750003287A6F84830A6F846304FF6FF770120CA
:10176000664A674BF786A6F85200C6F88420C6F88A
:10177000943011F1100318BF0B692A8B3283336048
:1017800011F10C0318BFCB68DBF80C10DBF810204C
:1017900008784F78736040EA07202B893084501C0A
:1017A0007062F0620320307423F06603C9896869AF
:1017B000ED69A6F85C10DB05013ADB0DA6F85410C4
:1017C000DBF81C10326633817061F16006F138007D
:1017D000F561CBF81C6001F00DFF301D02F03CFB01
:1017E000328F30B1038D23B1283B9BB29A4228BF80
:1017F0001A463287012300221221304600F030FCC5
:1018000098B9304601F0CEFD2046FEF765BDDBF805
:101810002830DBF820107BB11A6B8A1AB24234BF31
:10182000324618461646DB68F5E73046002100F0E0
:10183000F1FF2046FEF750BD10B1012100F0EAFF94
:10184000022001F0CDFF064600287FF458AFDBF8F8
:101850001C30DBF820C04FF07F0E73B1597C8F42F3
:1018600009D3714507D81A6BC2EB0C02B24202D3FE
:101870008E4616461846DB68EFE710B1012100F0EE
:10188000C9FF022001F0ACFF064600287FF437AF05
:101890002046FEF721BD059B01930130CDF8009055
:1018A00006F10C03069A514401F00CFD2046FEF7A8
:1018B00013BD099B05975A073EF50DAD059B019396
:1018C000CDF8009006F10C03069A514401F0FAFCA1
:1018D0002046FEF701BD23462046294600F04EFF74
:1018E000CDE45FEACE7344BFDBF820302B6395E490
:1018F000284600F0EDFED4E4040000207D27000817
:1019000000DD6D00F8B53D4ED6F800E00C46DEF87F
:101910000870002948D0002562896168781903F0B1
:10192000AEFF638924681D44002CF5D1D6F800E091
:10193000DEF80030002BADB234DB40F2F4539D42B0
:1019400037D92F48A0FB0520800A03FB10539BB218
:1019500080B2002B45D001302A4B05F2F45503FB31
:101960000055C5F30C057346002240F2F454471E9F
:10197000002A3BD097425C602DD01968013241F0BB
:10198000004119608242DB68F2D133601E4B41F2A4
:1019900014029958490705D541F204010424002096
:1019A0009C5058500020F8BDDEF80030002BF9DBC9
:1019B0000D46DEF8003043F04053CEF80030CEF84C
:1019C0000450DEF8003043F00043CEF80030DEF87B
:1019D0000C303360DAE7196841F0005119605D603E
:1019E000CBE70128B8D1C5F30C05E2E7DEF800101B
:1019F00041F08051CEF800105C60BEE7DCB30020FF
:101A00000BB002AC0CFAFFFF0080024030B40D4B6B
:101A10008278DB6804780C49DB430F25C3F302238B
:101A200045FA03F313401B010A19DBB282F80033B5
:101A30000378012203F01F005B11824041F823204C
:101A400030BC704700ED00E000E100E0084A908102
:101A500013899807FCD5064A1389D907FCD5044990
:101A60000B89034A1B06FBD49089C0B2704700BFA4
:101A700000300140F8B50D46064600214078144676
:101A800002F038FB05F01F0040F02000FFF7DEFFFA
:101A9000651D074614F8010BFFF7D8FFAC42F9D1DA
:101AA0007078012102F026FB3846F8BD2DE9F84395
:101AB00007460D4616462A2100220320984601F0CB
:101AC0000DFF00283BD04168DFF878E001230024B7
:101AD00081464B750C75F446052200E01C7AB35C18
:101AE0008818837580F820401EF802308B54531EEE
:101AF000AA5C8271DAB2FF2A0CEB0203EED1D8F8AD
:101B00000030CB61089B1B68C1F8263008220020FA
:101B1000062304240125887348740A740A738B749D
:101B20004B73CC74CD73BB6949463846984704461D
:101B3000484600F0F3FC204640B2BDE8F883FF20A1
:101B4000FAE700BF3472000810B483B00F4C10499C
:101B5000002301932369606103F01C0343F40063D5
:101B600043F0030322462361019B01330193136970
:101B7000DB0702D5019B8B42F6D90198054BC01AB1
:101B800018BF012003B05DF8044B7047008002408D
:101B9000FEFF0400FFFF040082B00023114A0193FE
:101BA00013691149800100F4F86003F01C0303433A
:101BB00043F4006343F001031361019B013301937C
:101BC0001369DB0702D5019B8B42F6D9019A074BBB
:101BD0009A4204D0034B586980B202B0704700208B
:101BE00002B0704700800240FEFF0400FFFF0400C7
:101BF0002DE9F04F85B00023DFF800910391804676
:101C00000193D9F80400002857D04FF0000B5E462E
:101C10005D46D8F80C7002460BE00BF1010BCDB11C
:101C2000D47FE97F8C4298BF15461468B4B116463C
:101C300022465169B942F0D1D8F810409169A142C9
:101C4000EBD19489B8F804108C42EED00BF1010B63
:101C5000002DE5D114681546002CE8D135B36F6826
:101C60007A68918869B3029079683846D1F800A003
:101C700000F04AFC04443846574600F04FFC002F61
:101C8000F2D1029B2A689D4218BF326029464FF06C
:101C9000050008BFC9F8042001F098FDB9F8082034
:101CA000019B121B23440193A9F80820019B039A6E
:101CB000934202DABBF1010FA3DC019805B0BDE845
:101CC000F08F11686960104605F10801142203F0D5
:101CD000D6FD01220B21381D02F032F9384600F002
:101CE00013FC0446384600F019FC6A68D9F8043041
:101CF0000293002AC5D01746B6E700BFDCB3002028
:101D00002DE9F04F8DB01F4601909DF858909DF839
:101D10005C40DDF860B00592002A51D00D461421D8
:101D20008046164600F0C4FD002840F03681D8F801
:101D30000420CDF804801389D6F800E0A5493F02BD
:101D400047EA13231F0A47EA03239BB244EA03230B
:101D50004FEA0926B8F808704C89C2F810E09BB227
:101D600046F0450616801E0A46EA03233E0A46EA66
:101D70000727260A46EA0426013413819071D071A0
:101D8000578096804C81ADB12B689BB1D360002306
:101D90009372D372BBF828401CB1019B1B89A342EC
:101DA00013D8059A0199DBF8143058460DB0BDE8F8
:101DB000F04F18471BF1040318BFDBF80430E5E7C8
:101DC000019B5B6810330593E4E702221046002173
:101DD00001F084FD0790002800F0E4807E4B019D17
:101DE000448123F00308C0F8048004811422696848
:101DF000404603F044FDB8F806202F89130A43EA51
:101E000002239BB203F40052C3F30C030293B4F118
:101E10001403A7F1140748BFA4F10D03C3F3CF03C4
:101E2000BFB292B20993002F73D0DB009BB208F1CE
:101E300014090B931423A4F1130192B203934B469C
:101E40000691B9460892CDF828B01F46029B069A23
:101E5000C3F30C0A089B91454AEA0303049376DB1B
:101E600043F400530493002F7BD00B9B002B00F016
:101E700096809B46039B019EBA4600255F460AEB6F
:101E800005007489002B4CD0A342A3EB040248D375
:101E9000366893B2002EF2D15746039A1544BDF826
:101EA00010200BF1140392FA92FAAAB25BBA0392D1
:101EB0004FF00002A8F802301421A8F806A040460E
:101EC000A8F80A2002F006F8069BC0439945A8F836
:101ED0000A003FDB00221146022001F0FFFC04460D
:101EE000002855D0079900F0D5FA0A98059A436959
:101EF00021469847204600F011FB029B099ACBEB44
:101F0000090913449BB21FFA89F90293B9F1000F32
:101F10009CD1079800F002FB002040B20DB0BDE854
:101F2000F08FE41AA4B2BC4228BF3C467168A4B248
:101F30003F1B224619442544BFB203F0A0FCADB2BA
:101F40003668002FA8D00023002E98D1A4E75FB3F5
:101F5000CB468FE709F11404A1B2079801F0A8FB62
:101F6000B8E70B9CBDF81020A8F80A70234614337C
:101F700092FA92FA5BBA1421A8F806A04046A8F893
:101F8000023001F0A7FFC043A8F80A00A346A1E76A
:101F9000079800F0C3FAFF20BFE7FE20BDE70B9DC6
:101FA000AB467AE7FF20B8E7BDF81030A8F80A7012
:101FB00009F1140493FA93FA63BA1421A8F806A05D
:101FC0004046A8F8023001F085FFC043A8F80A0097
:101FD000CB46C1E7DCB30020EBB30020F0B50546EB
:101FE00085B0104614461F460E4601F035FF9DF899
:101FF00028309DF82C2058B102900192009322467F
:102000003B4631462846FFF77BFE40B205B0F0BDA7
:10201000FC20FAE770B505460C46008B298C6E6AE9
:1020200062600B0A020A42EA002243EA012322808C
:102030006380304601F082FF6A8DA060130A164467
:10204000502043EA0222102100232073E2816173B1
:10205000A374E374237463742046EE6270BD00BF02
:102060002DE9F04F8BB02BB98C0700F035811C4661
:102070001D4609E013F0010403F0020518BF042413
:10208000002D14BF0C250025B0F87060D0F86890C2
:102090002C44E4B2032E009400F220810693A3089E
:1020A00005331B039BB204930B02074605930020E4
:1020B00002F0010309920891834605468046029387
:1020C00003905BE0009B0022E11889B2104601F00A
:1020D00005FC8346CAF80400002800F08D8000F05B
:1020E00013FADBF80420CAF80820304486B2042E24
:1020F00000F28280AAF80C401421DAF8040000F003
:10210000D7FB0190002877D1388BDAF80410B7F8A4
:1021100020E0D1F804B0CAF810B0010A41EA00206A
:102120004FEA1E2141EA0E21ABF80000ABF8021085
:10213000484601F003FFBBF80C10059B019A8BF891
:10214000122021F47C5119439DF81830ABF80C1083
:102150008BF81320CBF804008AF80E30BBF80C2063
:10216000049BC2F305222D1B1A4352BAADB2ABF841
:102170000C20A044A144D346002D60D03C8F009B8E
:10218000E41AAC424FF00400A8BF2C4601F028FB33
:10219000A4B282460794002844D0039B0022026028
:1021A0004260002B3CD0CBF80000029B002B89D171
:1021B00002980099024601F091FBCAF80400D8B1D8
:1021C00000F0A2F9304486B2002D90D001222146C1
:1021D000032001F083FB002800F0CA800136C0F81C
:1021E00004800146CAF80880DAF80400B6B200F0AC
:1021F00073F9042E7FF67EAFDDF80C8097F822305D
:1022000063F07F0387F822304046046800F0F0F95D
:102210002046002CF9D1FF2040B20BB0BDE8F08F72
:102220000390C2E797F82230DDF80C8063F07F035B
:1022300087F82230B8F1000FEDD04046E5E77C6F1B
:10224000DDF80C800CB9B0E01C462368002BFBD1F4
:102250002169B4F80C908A89C2F30122002A0CBFCC
:10226000484609F10100002840D1089B03F0030B08
:10227000089BC4F800805FFA8BF503F00109003574
:1022800018BF0125A8B2B9F1000F05D097F8222098
:1022900042F0200287F82220B96EB7F86E20A7F826
:1022A00070600D44121ABD66A7F86E20BAF1000FD7
:1022B00000F08380079B6BB1DAF81020002A00F051
:1022C0008780099B03F0020303F0FF00002B59D025
:1022D0000020A1E707989FE7F6209DE790F82230BD
:1022E00063F07F0380F82230FF2095E7002ABCD1FD
:1022F000089A02F0030B0BF0FF05BBF1000F01D0B1
:10230000012AB5D1B8F80C20388F4A448242AFDC9C
:10231000A07B98F80E209042AAD1486801F00EFEEA
:10232000D8F810208144506801F008FE81459FD103
:10233000009BD8F80400C3F57F41EC3109B200F0EE
:10234000B7FA00287FF45AAFD8F804004189B1B336
:10235000089B13F001091AD021698A8942F480721E
:102360008A81C24536D04146042001F02FFA86E723
:10237000DAF80400DDF80C8000F0D0F8029BCAF80F
:1023800004303BE7938943F40063938144E7D8F832
:102390000410606800F0A0F8B8F80C20A089D8F804
:1023A000001021600244A281DBE7089AC7F874801C
:1023B00002F0030502F0010961E750462CE70268CC
:1023C000C8F80420013E0160B6B200F0A7F8BFE7EC
:1023D000104621E7A3890793A246C4E701221146CC
:1023E00000233DE62DE9F041002851D00F46002999
:1023F0004ED002890B899A42064649D34FF0000815
:10240000454673897C8970687968C8EB04045B1B56
:10241000A342B4BF9CB2A4B241442844224603F074
:102420002EFA25447389ADB2AB4244447B8908BF80
:1024300036681FFA84F808BF0025984504D33F6822
:10244000BFB17B894FF000083A899A420CD0002E28
:10245000D7D0728933899A42D3D13368002BD0D038
:10246000F72670B2BDE8F0813B68002BEFD0F7266D
:10247000F7E756B1328973899A4218BF3E4604D1B4
:102480003368002B0CBF0026F72670B2BDE8F08140
:10249000F626FAE7B8B1A9B1026830B40AB918E073
:1024A000224605890B8914682B4403811046002CB1
:1024B000F6D110890B891160034430BC1381CB899C
:1024C0000133CB8170470029FCD0CB890133CB810C
:1024D00070470246EDE700BF98B191B1026830B491
:1024E0000AB90FE0224605890B8914682B44038141
:1024F0001046002CF6D130BC0B89108911600344C2
:10250000138170470246F6E7034630B100201B688E
:102510000130C0B2002BFAD1704770470146002845
:1025200063D02DE9F041314E0024374643E0326854
:1025300091423CD3D7F804E0714538D201F8043C0D
:10254000B86831F8088CA1F10803834202EB080C4B
:1025500038BFBB60634513D09CF8040080B9E645E2
:102560000ED0B068844532F8080008BFB36021F887
:10257000080C32F808001044C2EB030EA0F802E089
:1025800031F806EC02EB0E0C634510D09CF8040009
:1025900068B9B068834231F8083C08BFC6F808C083
:1025A00022F80E3031F8083C1A44A2F802E0013457
:1025B000E4B29DB12946CB89013B9BB2CB816BB97B
:1025C0000A7B0D68032A0CD0013A012AAFD80720F4
:1025D000013401F0FBF8E4B2002DEBD12046BDE858
:1025E000F081082001F0F2F8E1E77047C8B9002057
:1025F00038B568B10446406840B1FFF78FFF054623
:102600002146042001F0E2F8284638BD0546F7E7E8
:102610000546284638BD00BF38B50546C06F18B11D
:10262000FFF77CFF0023EB67686F28B10468FFF7B2
:10263000DFFF2046002CF9D1A86F28B10468FFF70E
:10264000D7FF2046002CF9D100236B67AB6738BD5C
:1026500002688A4210B50C4632D01C490A6052B159
:10266000D3689C422FD02BB1DA68944224D0134611
:10267000002BF9D10B60237C0022E2605BB10A2BB6
:102680000DD0012B0BD02046FFF7C6FF237C0A2B71
:1026900005D0012B03D094F82230DA0702D40023AE
:1026A000237410BD43F0020384F82230204600F06A
:1026B00079FE0023237410BD0B60E268DA60DAE76C
:1026C000CB680360D7E71346F7E700BF000100209F
:1026D000037C10B50446072B0DD8DFE803F01F2F4D
:1026E000160F0F0C0C04FFF779FE28B90923237489
:1026F000204600F057FE002040B210BDFFF76EFEEE
:102700000028F9D105232374F2E701461748FFF7A3
:102710009FFF2146022001F059F8ECE7144BDA68DC
:1027200090421DD013490A6092B1D368984216D0E6
:102730006BB1DA68944216D01346F9E701460E48A9
:10274000FFF786FF2146032001F040F8D3E70B6036
:102750000023E3602146022001F038F8CBE713465E
:10276000E268DA60F4E70B60FAE700BFE8000020F7
:10277000C8B9002000010020F00000208AB31089B1
:10278000F8B50B8D03449BB240F66830834224D8E1
:102790000B851C46D1F824E0CF6A0D8F1646C7EB97
:1027A0000E020846A11840F2B454A54294BF4C1B37
:1027B0000C1B002C18DB40F2D9229142438507DD27
:1027C00090F8223043F0020380F8223000F0EAFD56
:1027D0003046FFF7A3FE0020F8BD044608850346F7
:1027E000D8E76BB100207047002ACBBF0023CEEBA7
:1027F0000707438547853046FFF790FE0020F8BD68
:10280000084665E7037C012B02D90A2B00D003E7B9
:10281000704700BF2DE9F04F037C0A2B87B00446B8
:1028200039D090E80C000E461F4805932146636995
:102830000492D4F85880D4F82490B4F818A0B4F8CE
:1028400020B0D4F890500393FFF702FFA06F28B197
:102850000768FFF7CDFE3846002FF9D1606F28B129
:102860000768FFF7C5FE3846002FF9D12146022040
:1028700000F0ACFF1DB103986FF00401A8473EB112
:102880008DE8000C4946404605AB04AA00F01AFD4D
:1028900007B0BDE8F08F01460448FFF7D9FE214696
:1028A000022000F093FFF3E7E8000020F40000208E
:1028B00010B4E1B158B100291DDB8AB2037B446832
:1028C00043B1032B06D0013B012B1FD901205DF83A
:1028D000044B7047631A00F110029342436010D317
:1028E0004389028989B20B4411444381018100204C
:1028F0005DF8044B70474A42438992B29342DDD25D
:10290000E4E7446001205DF8044B70470029DDDAFC
:1029100043899A42DAD8641A4460E2E72DE9F84F15
:10292000A94BAA4E1B78DA06044624D4DFF8ACB2D1
:10293000BBF80020002A00F08D80636A3068C0EB8D
:10294000030EBEF1010F05D4591C091A8A1A002A78
:1029500040F3AE81C21A002AC0F2DC81218DC1F1A0
:1029600001020244D21A002A40F33A812046BDE80F
:10297000F84F00F0EBBC026E3368B0F85CE0416EDB
:10298000D01A0028C0F29A80914D9A42D5F8008062
:1029900000F08581414500F0B581E26CC2EB08038F
:1029A000002B40F36781A26DC2EB0802002A40F3BE
:1029B0009C800023DFF824B2A4F86C30676FF7B175
:1029C000D7F810A0D5F80090DAF8040001F0B6FAB4
:1029D000BAF80C10BB890A0A42EA012292B212F03C
:1029E000030118BF01210B44C3EB0903181A002887
:1029F00005DBA36DC3EB0909B9F1000F41DDE36B02
:102A0000002B95D02968226C521A002A90DA71495D
:102A1000B4F84420086842F3CC01C31A591A89B2A9
:102A20008B188AB2100444BF49428AB2B4F84610E7
:102A300041F38D00091A9BB20A4492B2A4F84430C3
:102A400043F3CC0313440021A4F84830A4F84620F3
:102A5000E1636DE73368616A5A1A002A06DB5A1C83
:102A6000208D531A1B1A002B40F3178194F8223043
:102A700043F0020384F822302046BDE8F84F00F00E
:102A800091BC79683B6863670846FFF73DFDB4F881
:102A90006C305BB90846FFF737FDB4F87030181A90
:102AA000A4F870003846FFF7A3FD87E712F0010F86
:102AB00003F1FF33EED0A4F86C30EBE7464A444D07
:102AC0001268D5F80080D289A4F85C202366C4F887
:102AD0006480002A3FF461AF94F89C30002B3FF4EF
:102AE0005CAF002384F89C3057E794F82220570706
:102AF00007D522F00402B4F8541084F82220A4F878
:102B00005210B4F94400B4F84620B4F86E10C4F87A
:102B10004C8002EBE002207CA4F848209BB21944D0
:102B2000A4F86C3003284FF00003A4F86E1084F86A
:102B30004A3084F8503000F2FD80A76FBFB3D7F859
:102B40001090D9F8040001F0F9F9B9F80C10BA891D
:102B50000B0A43EA012189B211F0030318BF0123D4
:102B60001344C8EB03031844002807DD0023E38661
:102B70000023DFF868B084F834301FE77A683B68D8
:102B8000A3671046FFF7C0FCB4F86C309BB9104641
:102B9000FFF7BAFCB4F87030181AA4F87000384681
:102BA000FFF726FDA76F17B1D5F80080C7E74FF6EE
:102BB000FF73E386DCE711F0010F03F1FF33E6D08A
:102BC000A4F86C30E3E700BFE4000020DC00002044
:102BD000E0000020EC000020D8000020E6000020EB
:102BE00083427FF4C3AEDFF88C82D8F810E0B8F8E7
:102BF0000C30BEF80C502A0A42EA052292B212F0BA
:102C0000030018BF0120184480B28142ABF80000D5
:102C1000C0F0BD803568278FE66A0B1A9BB2284446
:102C200040F2B4511D188F42A5EB060594BFE91B75
:102C3000691A002960622385C0F28B806385D8F809
:102C400004308C48198919B18B4D00212B604160EB
:102C5000D10704D5894A137843F02003137094F800
:102C60002230DA0700F1B38043F0010384F8223008
:102C7000BDE8F88FDFF80CB2BBF800300020A4F8F4
:102C80006C0033B9B4F85C00636E7144034499423C
:102C900064D0002384F8503090E6BDE8F88FC8EB8C
:102CA0000102002ABFF676AE754A1268D2890BE798
:102CB000DFF8C081D8F804506A899645734640F31E
:102CC00089802989C91A89B20020688129812D68E3
:102CD0009B1A6A899A42F8DB594209B22846FFF7E3
:102CE000E7FD3168B8F80C20636A6868C8F8080026
:102CF0000A44D8F810103360D21AA8F80C201846ED
:102D00004B602BE65E4A1268D28996458846BFF42E
:102D100044AED9E694F8223043F0020384F822301E
:102D2000204600F03FFB3068636AC21A002AFFF6B3
:102D30001DAE13E6B4F85430B4F852209342238FFA
:102D40004FD913449BB29A42BFF4F7AEA4F8523065
:102D5000F3E6831B002B4EDD00236FE7B4F936301A
:102D6000002B96DB424594D194F850300133DBB20E
:102D7000032B84F850304ED9B4F85220238F1344DB
:102D80009BB29A42BFF41AAEA4F8523016E6D707A7
:102D900034D4900744BF01F1FF3189B2D8F8040060
:102DA000A8F80C1000F084FCD8F81020B8F80C300B
:102DB0009089218D020A42EA002292B212F00300A9
:102DC00018BF0120184480B2ABF8000022E723F0BE
:102DD00001034DE6CEF1000109B22846FFF768FD78
:102DE0007FE703FB03F393FBF2F313449BB29A4296
:102DF000BFF4A3AEAAE7301A608520E702F03E03D5
:102E000025F47C5545EA03231A0A42EA0322AEF868
:102E10000C3092B2BDE77FF4D1ADA36F002B3FF42D
:102E2000CDAD94F822305B073FF5C8AD204602F0E7
:102E30004FFCB4F85230B4F85C20208F93428DBF21
:102E400052085B08A4F85430A4F85420B4F8542075
:102E500043009A42B8BFA4F8543094F82220B4F842
:102E6000541003440B4442F00402A4F8523084F896
:102E70002220A3E50801002004010020FC0000201E
:102E8000D8000020E6000020F0B44D680624013C84
:102E9000E4B22E191F5D2F55175DB771002CF6D1C6
:102EA00008232B736C738369F0BC184768B138B57D
:102EB000044625686068FFF731FB2146062000F0D4
:102EC00085FC2C46002DF4D138BD70472DE9F04F1C
:102ED00085B0019148B15B4A137803EB830102EBA3
:102EE0008102917C022900F09E80574A0A25002326
:102EF000A2F1040E99469A460293AC4600950395BA
:102F00002F4608E0012C31D0022C46D001330A2B89
:102F100002F114020CD00A2FD9B2947BF2D1002C0A
:102F2000F0D101330A2B8C464FB202F11402F2D1D8
:102F30000A2F0646019955D08B0700F18180414C3C
:102F40005FFA8CF5BB00DA1904EB82020021917460
:102F50000EB1316891603B4404EB8303002225707D
:102F6000DA74EDB268B205B0BDE8F08F58B39E00D8
:102F7000F4180EEB8404D0F80080D4F808B0314C7B
:102F8000D8455AD01E4404EB860674681CB3F47C02
:102F90004C45BBD30D46A146B8E700284AD09E0059
:102FA000F4180EEB8404D0F80080D4F808B0254C57
:102FB000D84542D01E4404EB8606F47C544524BF19
:102FC0000091A246A2E71F4C9E001E4404EB860619
:102FD0007468002CDBD1F47C029EB44296D303913A
:102FE000029493E7CA072BD501F0020101F0FF0913
:102FF00031BB009B0A2B12D1039B0A2B0FD16FB25E
:103000000A2F1DD00F4C07EB870804EB8808EDB2A0
:10301000D8F80400FFF74AFFC8F8049092E7DDB241
:103020002F46084C8EE79268016891427FF45DAFAD
:10303000DDB297E7034C9E00BCE721700D4691E797
:10304000FF258FE7D8B90020DCB900202DE9F04733
:103050000F4684B005460E2138461646FFF728FC79
:1030600068BB2946304600F017FF0346E0B93068D8
:1030700000F0F002E02A00F085806B68AA68434007
:1030800013421ED0EC68002C00F0B38005F10C0652
:103090003046294600F000FF002800F09D80F62011
:1030A00040B204B0BDE8F087574B394605F12B021A
:1030B0002846FFF7E9FE40B204B0BDE8F087FE20E5
:1030C000EEE705F12B0A0028E9D001213046FFF791
:1030D000FDFE041E49DB4FEA8408DFF8349108EB5B
:1030E000040309EB83039A7C002A34D101229A74E9
:1030F00000962B1D524651462846FEF7D7FC064641
:10310000002F74D008EB040309EB83039B7C022B94
:103110002DD0012B6BD13B461A7B012A47D11B686E
:10312000002BF9D1FB890133FB81062000F058FB0D
:10313000002864D0444409EB84090023D9F8042012
:1031400080E888000AB956E01A461368002BFBD1C4
:1031500010601846A4E7012ACAD0AFB3022A06D0ED
:10316000FF2040B204B0BDE8F087204698E7274B27
:10317000444403EB84035246394628460833FFF79C
:1031800083FE8DE75E2201218DF809308DF80A203B
:103190008DF8081000F0D2FE030AC0F306428DF845
:1031A0000C308DF80D008DF80B2002AB7DE71989EE
:1031B0000022032000F092FB0546C0B13946FFF71C
:1031C00011F988B92F46B0E700962B1D28465246C4
:1031D0005146FEF76BFC63E704F0F004E02C05F1C8
:1031E0002B0A3FF45CAF70E72846FFF797F93046AB
:1031F00056E7FC2054E7C9F80400104650E738466B
:10320000FFF78CF930464BE734720008DCB9002038
:10321000D8B9002000294FD02DE9F041D1F8008025
:10322000B8F1000F03D1F62040B2BDE8F0810C46A2
:103230000746014620461D46164600F02DFE002892
:10324000F1D108F0F008B8F1E00FECD029462046A3
:10325000FFF73CFE0028E7DB8500194C2A1804EB39
:1032600082020223937457610623013BDBB2D1181B
:1032700016F803E081F80CE0002BF6D15168D37406
:10328000B1B1284404EB800507F12B0891E8180040
:1032900006206B6000F09AFA2146334642463846D3
:1032A000FFF7F2FD2046FFF739F969680029EDD1F3
:1032B000002040B2BDE8F081F62040B2704700BF68
:1032C000D8B900202DE9F04F83B0824689461746D1
:1032D0001421002201209846BDF830B0BDF83460BA
:1032E00000F0FCFA78B344689BFA9BFB76BA05467B
:1032F00066805046A4F800B000F020FE60604846AA
:1033000000F01CFE0B26A060A67300204FF0680C96
:103310004FF0500E142306266373A074E0742074DB
:10332000607484F80FC084F80CE042468DE84100D8
:103330003946FF232846FEF751FE284603B0BDE874
:10334000F04FFFF7EBB803B0BDE8F08F30B50022C7
:1033500083B004461421012000F0C0FAF8B194F8BB
:10336000223023F00303054684F82230A06D00F0DC
:10337000E5FD696802462046FEF74CFEA27AE37A34
:103380000092062201922146221D2846FEF726FEC3
:103390002846FFF7C3F8002040B203B030BDFE203E
:1033A000FAE700BF904B1B68834200F01A812DE9B9
:1033B000F04FB0F85230B0F85C9090F82220456F92
:1033C000994528BF9946910785B0044627D4D0F87F
:1033D0007880B8F1000F01D104E09846D8F80030A9
:1033E000002BFAD19DB1D4F84CA000272E6970684B
:1033F00000F0A4FDA989CAEB01031844814522D23B
:1034000094F8222094F89C30002B00F0D78002F032
:103410007F02002084F8222005B0BDE8F08F0392DF
:1034200065B12B69586800F089FDA989D4F84CA0D2
:10343000CAEB01010844814580F0CB80204605B0ED
:10344000BDE8F04F82E7A36FB6F80CE05BB194F8EB
:10345000222012F0440F06D1002D00F0AA802B6824
:10346000002B00F0A280237C2A686267022B0AD01E
:103470004EF4805EA6F80CE094F8223023F00303AB
:1034800084F822302E69D4F824A0504600F056FD6E
:10349000618DB0600A0A01EB0A0342EA0122F2815F
:1034A000E362AA7BD30744BF504B73612268B246E4
:1034B00004F1040B2AB9584600F0CEFC20B343684F
:1034C0002360B4F936300133E36B08BFE786002B85
:1034D00047D0686843680189B0F80AE04660F31A8B
:1034E0009BB2C3EB0E0ECB1AA0F80AE0038137742F
:1034F0007774A17AE37A0091062101915A46214618
:10350000FEF76CFDD5F810A0DAF8040000F016FD07
:10351000BAF80C30A16D13F440738346A88918BF24
:103520000123034403EB0B00091A0029B8BFA0656F
:10353000002B36D0A66F2F60DEB1D8F81030586857
:1035400000F0FCFCC0EB0B00002815DBC8F80050B5
:10355000A846656F15B1D4F84CA047E794F822202F
:1035600055E7234B1B68E363706800F0E7FC2064B9
:10357000AFE7A567A846ECE704F1780A3169486827
:1035800000F0DCFCCBEB0000002803DB2E60CAF867
:103590000050DEE7DAF800A0DAF80060002EEDD186
:1035A000F4E72846FFF724F8D3E7238F9942BFF4C6
:1035B0005AAF12F0A00F7FF456AF23E7B4F85C10B7
:1035C00088427FF624AF0121C4F8983084F89C101B
:1035D0001DE7D4F87880039AB8F1000F7FF4FEAEAF
:1035E00003E70020704700BFF8000020020405B484
:1035F000EC0000201C4B19688B89C3F30313052BC7
:1036000000DC70475A1F9200F0B592B214310023CB
:1036100040F2B35740F2B456CC5C012C19D017D30A
:10362000022C19D1CD186C78042C11D1DC1C9442D9
:103630000EDA95F802E0EC7844EA0E24651EADB28D
:103640000433BD4288BF34469BB204809A42E3D81B
:10365000F0BD01339BB2F9E7CC186478002CF7D0A9
:1036600023449BB2F2E700BFD800002010B5044607
:10367000064B4068236004F10C03984201D002F02D
:1036800072F8204602F06FF8204610BD4C72000818
:1036900010B50446054B4068236004F10C039842C2
:1036A00001D002F060F8204610BD00BF4C72000847
:1036B000F8B503898B4260D94289914204460AD900
:1036C000C81A00E02389034423812468891A628987
:1036D00089B28A42F6D3237B002B45D1914243D055
:1036E0006268CB1C121B134423F003039BB20B2B09
:1036F00047D9B3F5205F41D8314A1268A24233D886
:1037000030480068A0422FD9A4F10800801A34F88C
:10371000086C80B2351A083DADB29D422ED323D03D
:10372000971997F804E0BEF1000F2CD1DFF898E06C
:1037300032F806C0DEF8005000F1080633449BB2B0
:10374000AF4202EB03054FF0000608BFCEF8005071
:103750002E71A5F800C0688024F8083C2888B0F5D0
:10376000205F01D00244538020686181218108B12B
:10377000FEF7D4FE00232360F8BDF8BD00235B8173
:10378000FFDE0C23B8E703F11407AF42ECD800F1D9
:1037900008050D4F2B449BB23D6802EB030EAE456E
:1037A00038BFC7F800E000278EF80470D652AEF894
:1037B000020024F8083CD05AB0F5205FD2D1D3E7FC
:1037C000C8B90020CCB90020D0B9002029B1034BE2
:1037D00053F820200A6043F820107047A4BA002054
:1037E000082808D8064A52F8203033B1196842F840
:1037F000201018467047002070471846704700BFD9
:10380000A4BA002000284BD02DE9F04103304FF638
:10381000FC7707400B2F20D9B7F5205F1AD8C7F5E2
:103820002056DFF8B0C0DFF8B080DCF800E0D8F850
:103830000020C2EB0E039BB2B3420BDAD01804791E
:103840007CB9D55AA5F10801C91AB9420BD22B4649
:10385000B342F3DB0020BDE8F08142F2F4760C279E
:10386000DFE7D35AE8E707F11406B14206D2012395
:103870000371864515D00830BDE8F08107F10801D5
:10388000194489B25618012734715552738001804A
:103890000771535AB3F5205FEBD013445980E8E722
:1038A00070479EF80430002BE5D0094B1A68964506
:1038B000E1D0D8F8001001E0964506D0BEF800E04F
:1038C0008E449EF80430002BF6D1CCF800E0D2E70D
:1038D000CCB90020D0B90020C8B900202DE9F843A8
:1038E000032800F28880DFE800F082848002002450
:1038F00015468846032A7ED8DFE802F05749490278
:103900000820FFF76DFF0646002874D0E31C23F063
:103910000303C3F5FA734345A8BF43460444002795
:103920001334C3EB080524F003044FF0030901220C
:10393000BD42A0F808804381446080F80C90076085
:10394000C2814BDD80460DE080F80C904773076024
:10395000C8F800000581ED1A002D43814160C28145
:1039600080463BDD0820FFF73BFFB5F5FA7F2B468D
:103970000446A8BF4FF4FA7300F110010122002899
:10398000E2D13046FEF7CAFD2046BDE8F8830720A5
:10399000FFF726FF064670B30023A0F80880A0F8C2
:1039A0000A8005734360036018E0CB1C04F1130028
:1039B00023F0030320F00300184480B2FFF722FF36
:1039C0000646C0B104441334002324F003044460C9
:1039D000A0F80880A0F80A80036003730023012286
:1039E0007373F2813046BDE8F8830E2480E73624F5
:1039F0007EE722247CE70020BDE8F88310B4214C48
:103A0000A36803F00C03042B1BD0082B1CD01E4B07
:103A100003601C4A1D499468C4F303140C5DE34021
:103A200043609468C4F382240C5D23FA04F4846038
:103A300092685DF8044BC2F342328A5CD340C360A3
:103A40007047134B0360E4E76368616813F4800F09
:103A5000636818BF0E4C01F03F020CBF0A49B4FB6B
:103A6000F2F1C3F3881308BFB1FBF2F101FB03F2DB
:103A7000044B5B68C3F3014301335B00B2FBF3F318
:103A80000360C6E7003802400024F4002400002050
:103A900000127A0000222DE9F0471346D1F800E029
:103AA00001274FF0030C04E00133102B02F1020256
:103AB00029D007FA03F434EA0E05F5D1D0F80080D6
:103AC0000E790CFA02F5ED4308EA0508C0F800800B
:103AD000D0F8009006FA02FA013E4AEA0909012EDE
:103AE0000CFA02F8C0F800900FD9C568CC7925EA25
:103AF0000805C560C568944001332C43102BC46091
:103B000002F10202D5D1BDE8F087866891F80590F0
:103B10003540856086688D7909FA02F949EA06061A
:103B20008660466826EA04044460466805FA03F4A1
:103B3000A4B234434460D8E70F4A918913888806B9
:103B400000D470479BB29906FBD510B4918883B01E
:103B5000C9B28DF8071059B114460DF1070013884A
:103B60005B06FCD589B2A18010F8011F0029F6D1AF
:103B700003B05DF8044B7047001001403A493B4BDD
:103B8000D1F888203A4842F47002C1F888201A68B7
:103B9000002142F001021A6099601A6822F08472D2
:103BA00022F480321A6058601A6882B022F48022AF
:103BB0001A60D960009101911A6842F480321A604B
:103BC0001A46136803F400330193009B01330093FA
:103BD000019B1BB9009BB3F5A06FF2D1234B1B686F
:103BE00013F400330AD001230193019B012B09D068
:103BF0001D4B4FF000629A6002B070470193019B29
:103C0000012BF5D1194B1B491A6C1B4842F080520D
:103C10001A640A6842F480420A609A689A609A6854
:103C200042F400429A609A6842F4A0529A60586046
:103C30001A6842F080721A601A4611680B4B8901AB
:103C4000FBD50E4A40F2056111609A6822F003022A
:103C50009A609A6842F002029A601A46936803F0EA
:103C60000C03082BFAD1C3E700ED00E00038024056
:103C7000103000240070004019544007003C0240FE
:103C800038B500210446407800F034FAE120FDF711
:103C9000DDFE01210546607800F02CFA284638BD8B
:103CA00070B505460C4816460C4601F0A9FE0021E9
:103CB000687800F01FFA04F01F0040F02000FDF7C4
:103CC000C5FE04463046FDF7C1FE6878012100F0CC
:103CD00011FA204670BD00BF0474000838B50446D0
:103CE0000D464078002100F005FA05F01F00FDF7B1
:103CF000ADFEFF20FDF7AAFE01210546607800F029
:103D0000F9F9284638BD00BFF8B5064608461746FB
:103D10000D461C4600F046FA072894BF09220022EF
:103D200029460C4801F06CFE7CB1651EEDB20135F0
:103D300000243919C9B23046FFF7D0FF01340146DB
:103D4000054801F05DFEAC42F3D10448BDE8F840FF
:103D500001F056BE2074000828740008447300085F
:103D60002DE9F0410D4606460021407814461F46D5
:103D700000F0C0F905F01F00FDF768FE804657B15E
:103D80007D1EEDB22544013CFF20FDF75FFE04F8E7
:103D9000010FAC42F8D17078012100F0ABF9404638
:103DA000BDE8F0812DE9F043804683B00846914696
:103DB0000D461C4600F0F6F9072894BF09220022A0
:103DC0002946134801F01CFEDCB1671EFFB2013723
:103DD00000260DF1FF3509EB0601C9B205236A463D
:103DE0004046FFF7BDFF0B4801F00AFE01AC14F896
:103DF0000119094801F004FEAC42F8D10136BE4277
:103E0000E9D1064801F0FCFD03B0BDE8F08300BF36
:103E100020740008307400083474000844730008EB
:103E20001046704730B40D78104685B16AB1094C20
:103E3000501E224623885B06FCD5ADB2958011F852
:103E4000015F25B110F1FF30F4D24FF0FF3030BCEC
:103E5000704700BF0010014030B40E4D2B6863B1B5
:103E600093F83120D20705D504685A6899686240F2
:103E70000A420CD01B68002BF2D1686828B190F878
:103E8000313013F0010F08BF002030BC70471846D6
:103E900030BC7047C8BA00200268531E033316D8DE
:103EA00091F8313003F0020303F0FF0073B14B6867
:103EB0009A420AD0896853400B4206D1C94331EA7D
:103EC00002030CBF01200020704700207047012032
:103ED000704700BF0129F0B427D98F1EC7F34E07E2
:103EE000BE1C00EB4606831C002413F8025C13F88A
:103EF000012C023342EA05229E421444F5D10137D7
:103F0000CB0700EB470012D4A3B203EB1444230CFD
:103F10001B040BB1A4B20134200200F47F41C4F3AE
:103F2000072441EA0400F0BC704721B10024037863
:103F300004EB0324E8E70846F5E700BF00BA704742
:103F40002DE9F043054683B0884617462421002218
:103F50000120FFF7C3FC48B34468D5F8009084F80B
:103F60000080677006464068296800251C2225717C
:103F70006571A571E571083001F081FC7189A5704A
:103F8000E5702046FFF7A6FF0123C043608009F1DA
:103F90000C02019300952946FF233046FEF71EF8D8
:103FA000304603B0BDE8F043FEF7B8BA03B0BDE851
:103FB000F08300BF70B590F83130456ADA074FF0F2
:103FC000000648BF23F00103044648BF80F83130A3
:103FD00046608660C660002D55D02E71EE806E71F1
:103FE00004223146284601F055FC2E72636AB4F86B
:103FF0002F202C481044FFF7A1FFFFF79FFF5B7AAB
:10400000294A184480B240F0294040F47E00904292
:1040100030D800F57E40FFF791FF6B7A28600133BE
:104020006B72606A012200230271437194F82E5072
:1040300094F8303094F82F1094F82D60626A2C04B4
:1040400044EA03630B4343EA062302B1527A174959
:10405000447A1344A1FB0312D20802EB8202A3EBC1
:1040600042030A2CC3800BD94FF41673C38000207F
:1040700040B270BD0E4B984288BFA0F57E40CAE7A3
:10408000002040B270BD0A20FFF7BCFB054630B1EE
:1040900031460A2201F0FEFB2B466562A7E7FF20AE
:1040A000E6E700BF0001FEA9FF00FEA9CDCCCCCC05
:1040B000FFFEFEA930B50D4A0D48136B83B043F0E7
:1040C000100313630025012302224FF4C0746946D4
:1040D0008DF804308DF807308DF8065000948DF877
:1040E0000520FFF7D7FC03B030BD00BF0038024009
:1040F0000010024007280CBF80234FF48073034A4E
:1041000009B9538370471383704700BF0010024002
:104110004FF08042118A9389C9079BB201D5DB0712
:1041200000D4704705494FF6FE731382D1E900238E
:10413000013243F10003C1E900237047C8B30020F6
:1041400030B5104C236885B005466BB10E4B18682E
:1041500000FB05F00A28A0F10B0303D000BF13F108
:10416000FF33FBD205B030BD6846FFF747FC019B2B
:104170000648054AA0FB0330000D012310602360B0
:10418000E6E700BF200100202401002083DE1B435E
:104190000475000800000020A8000020B0000020E6
:1041A000F4BA0020034613F8012B002AFBD1181A99
:1041B000013870470000000000000000000000000F
:1041C00001F0FF01102A2BDB10F0070F08D010F8C8
:1041D000013B013A8B422DD010F0070F42B3F6D1CC
:1041E000F0B441EA012141EA014122F007047FF0E5
:1041F00000070023F0E80256083C85EA010586EA3C
:10420000010685FA47F5A3FA87F586FA47F6A5FA77
:1042100087F68EB9EED1F0BC01F0FF0102F0070283
:1042200032B110F8013B013A83EA010313B1F8D12E
:104230000020704701387047002D06BF354603380F
:10424000073815F0010F07D1013015F4807F02BF48
:10425000013015F4C03F0130F0BC0138704700BF99
:10426000A14BA24C5A6CA24D2DE9804842F010029D
:104270005A641A6B9BB042F002021A63C0220FA963
:10428000022320460F92002601228DF843208DF84C
:1042900040308DF841308DF84260FFF7FBFB236A18
:1042A00023F070632362236A43F0E0632362236A8E
:1042B00023F070432362236A43F0E04323622B8A96
:1042C0008C4C23F440531B041B0C2B82AB899BB2F8
:1042D00023F4B05323F00C0343F00C03AB81AB8AFF
:1042E00023F440731B041B0CAB8214A8FFF786FB5E
:1042F000AA89179B12F4004F03EB83037E4A03EB5A
:104300008303A2FB03237A4A14BF5B0C9B0C9289A4
:10431000A4FB031040096421150400FB11334FEA8C
:10432000001000F1BD831A013232A4FB0223C3F353
:10433000431303436E4C714A6B4E9BB22381136847
:1043400043F020031360002525234FF0010814A833
:104350008DF850308DF851508DF852508DF85380B3
:10436000FDF754FBA3899BB243F40053A381336B45
:1043700043F008033363BFF34F8F614B614F4FF03E
:1043800080621A600722082320218DF850208DF8C2
:104390005130002200232820CDE916238DF8541037
:1043A0008DF852808DF853508DF855508DF8565039
:1043B00001F0DBF90246544B42F80C3B8560057373
:1043C000736C426043F480537364336B43F00203B5
:1043D00004F57444336338230CA981460C932046BA
:1043E00002238DF834308DF835308DF836508DF845
:1043F0003750FFF74FFB226A444B22F4704222628F
:10440000226A42F4A0422262226A22F470222262CC
:10441000226A42F4A0222262226A22F470022262FC
:10442000226A42F4A00222621A8802F4415242F443
:1044300041721A809A8B22F400621204120C9A8341
:10444000BDF84C201A821A8892B242F040021A80BB
:104450000FA81C238DF83C30CDF860908DF83D50AE
:104460008DF83E808DF83F80FDF7D0FA326C4FF02A
:10447000804342EA080232641A8822F45C72120411
:1044800040F2E7301721120C1A80D8621985A3F880
:1044900014809A8992B242EA08029A811A8892B2EA
:1044A00042EA08021A80FFF705FEFFF703FE2946DD
:1044B0009DF85000FFF71EFE41469DF85100FFF7A2
:1044C00019FE3B68002B00F0F4827B6841F28832D1
:1044D00002FB03F30A2BA3F10B0219DD00BF12F15B
:1044E000FF32FBD214E000BF00380240000402405B
:1044F000001001401F85EB51C5B3A2910C10014083
:10450000000C0240200100204C72000800300140E5
:104510004F22042114A8FFF7C3FB062114A8FFF7BC
:10452000DDFB00F0F90242F00602062114A8FFF7B5
:10453000B7FB062114A8FFF7D1FB00F0D70040F02D
:10454000200422460621002514A88DF85250FFF7BA
:10455000A7FB062114A8FFF7C1FB844200F0BC8230
:104560008DF85250062114A8FFF7B8FB00F0D705CC
:104570002A460024062114A88DF85240FFF790FB2C
:10458000062114A8FFF7AAFB0021854214A818BF32
:104590008DF85240FFF7A2FB00F0F30242F00C024C
:1045A000002114A8FFF77CFB00221C2114A8FFF7B0
:1045B00077FB7022072114A8FFF772FB4C2205211C
:1045C00014A8FFF76DFB00219DF85100FFF792FD45
:1045D000E220FDF73BFA01219DF85100FFF78AFD2B
:1045E00014A8FFF74DFB4C22052114A8FFF758FB38
:1045F0002023062114A88DF85430FFF76FFBF2A595
:10460000D5E9004500F0F90242F00202062114A8A3
:10461000FFF746FB0CAA0A2114A8CDE90C45FDF7CB
:1046200029FA0CAA102114A8FDF724FA9DF85420A9
:10463000202A28BF2022112114A8FFF731FB0021D6
:104640009DF85100FFF756FDFF20FDF7FFF901210E
:1046500004469DF85100FFF74DFD04F00101C4F33D
:104660004202C4F30013029101920093C4F380123A
:10467000C4F340132146B84801F0C2F902230A22CC
:10468000B64914A8FFF78EFB04230C22B44914A8E2
:10469000FFF73AFB01231022B24914A8FFF782FB6F
:1046A00006231122B04914A8FFF72EFB01231A4656
:1046B000AE4914A8FFF728FB01230222AC4914A835
:1046C000FFF722FB01230522AA4914A8FFF71CFBD0
:1046D00001230622A84914A8FFF716FB0123002294
:1046E000A64914A8FFF710FB02231C22A44914A812
:1046F000FFF70AFB062114A8FFF7F0FA00F02800E4
:104700002028A04B00F0E5811A460793A0F108038A
:10471000B3FA83F35B0902EB8303596B9A4801F008
:104720006FF9079A9DF85330984802EB8303196C90
:1047300001F066F9002114A8FFF7D0FA040740F150
:10474000CF81934B10F0040FA3F1080108BF194665
:10475000904801F055F9062114A8FFF7BFFA00F0C0
:104760000600062800F0B381042800F0AE81A0F115
:104770000203B3FA83F3079A5B0902EB8303996C94
:104780008548864E864C874D01F03AF9864B87491D
:104790001A6B42F007021A635A6C4FF0010942F497
:1047A00080425A644FF00008C1F8009086223046DB
:1047B00003234FF0020A0FA90F928DF841308DF8B4
:1047C00040A08DF842808DF84380FFF763F9336A8B
:1047D00023F0F0033362336A43F0B0033362336A89
:1047E00023F470633362336A43F430633362336AB1
:1047F00023F070433362336A43F030433362204620
:104800004FF470530FA90F93FFF744F9636A23F431
:1048100070636362636A43F430636362636A23F4C0
:1048200070436362636A43F430436362636A23F4F0
:1048300070236362636A43F430236362636A23F420
:1048400070036362636A43F4300363622846322371
:104850000FA90F93FFF71EF92B6A23F0F0032B62C9
:104860002B6A43F0B0032B622B6A23F470232B6274
:104870002B6A43F430232B622B6A23F470032B62E0
:104880002B6A06F5805643F430032B62042430462D
:104890000FA98DF840908DF842808DF843908DF8E7
:1048A00041A00F94FFF7F6F87483CDF82080089AA2
:1048B00044F61F639A4205D8089A01320892089A72
:1048C0009A42F9D93A4A0023042111830893089A9D
:1048D00044F61F639A4205D8089A01320892089A52
:1048E0009A42F9D9304B334A196B41F06061196330
:1048F000196941F000711961196921F0007119619C
:10490000136843F00103136014682B4B14F0010487
:10491000FAD109940FA80A941D69FFF76FF8109B4C
:10492000264A27491A448A4225F01C0500F22C81A8
:1049300045F00805204B4FF400401D61FDF704F9D8
:10494000002800F0CF801F4B00220B920B930B9B93
:10495000002B43D03CE000BF68720008B072000832
:10496000C0720008D0720008D8720008E472000813
:10497000EC720008F8720008007300080C7300085D
:104980001473000864710008247300083873000869
:1049900080710008487300085C7300080000024042
:1049A000000402400008024000380240DC002742B8
:1049B00000100240009002400080024000D3CEFE72
:1049C000BFE1E400FFFF0F00E2F0F0F0F0000000B4
:1049D0000B9B013B0B930B9B002BF9D16F4D02E01E
:1049E0000A9BAB4207D80A9B012003440A93FDF7B8
:1049F000D3F84107F4D50A9A694B9A4272D0002342
:104A00004FF480500A93FDF79FF800286AD0634D59
:104A10000A9B012001330A93FDF7BEF8820602D4F7
:104A20000A9BAB42F4D90A9A5D4B9A425AD00023B2
:104A30001F200A93FDF7B0F800F01C00082800F0D2
:104A40003F860E2800F0388604280CBF4FF4007211
:104A50004FF49442534D54492868544B01400A4343
:104A6000402000212A606860A960E960A8694FF6CB
:104A70004172024042F0800241F21800AA61E961ED
:104A800029584B4A0B4043F0087343F004032B5062
:104A9000484B1360136843F080031360012322E046
:104AA000D9003231A4FB0132C2F3421242EA0003C0
:104AB00040E40FA8FEF7A2FF109B3F4AC7F8008012
:104AC000A2FB03231B0D7B6000E53C4958E63C49F3
:104AD00056E60793194621E601238DF8533041E548
:104AE000384935E60023BB60BB681BB9364800F087
:104AF00087FFFEE7354A364D1368364F364E43F092
:104B0000040313600FA8FEF779FF344B344835498E
:104B1000DFF8DCE023F0030303F520522B60036091
:104B200000253A6001204FF42057107117805780FC
:104B300028461F805D801D71A94621F003010EF1FA
:104B400014080423C6F80090B3B10027BC4638F817
:104B500010200D4600E05D4601371FFA87FA5345E5
:104B6000C5F800C005EB020B3560AC46F3D8013B3D
:104B70009BB203FB022211440130092806F104060E
:104B800038D03EF8023FDDE7174A18491A448A42F6
:104B900000F2D58245F00C05CCE600BFFEFF040014
:104BA000FFFF0400008002400F8120FF233FDEF85A
:104BB000009002400060C10283DE1B439071000838
:104BC000887100086C7100087073000810E000E044
:104BD000C8B90020CCB90020A4BA00202F010020C1
:104BE000D0B900204329002040F1E9FD3F787D0144
:104BF000BC710008012221238DE80C00C449A823C0
:104C0000C0220FA800F0F4FFC24BC24993F8F43F52
:104C1000C14A81F8F03F1068C04AC1F8CC2F013377
:104C200081F8F43F0023C1F8C03FC1F8C43FC1F888
:104C3000C83F81F8ED3FC1F8DC3FC1F8E03FC1F863
:104C4000D83F88B103689C4207D0C06860B1B14BBF
:104C5000D3F8C04F03689C42F7D1C4680121FDF727
:104C6000D9FD20460028F2D1AD4B1B685BB1A94AA3
:104C7000AC49D2F8C00F1A6812B1824208BF19605D
:104C8000DB68002BF7D1A84BA849DFF8E0B2A3F608
:104C9000F8740022022003F8110CA3F6F87584F8CA
:104CA000E82F84F8E92F84F8EA2FA148D4F8E74FD9
:104CB00003F80D2C85F8EC2F02609960446041F2F6
:104CC00018044FF48010A3F6F876C5F8F80F2851B1
:104CD00041F2580441F238057051305141F27804E4
:104CE0003051944C9448236001F2F45401F6E831B9
:104CF0009C62996441F2040401F2F451996603F153
:104D00002001315141F2240103F14004745041F279
:104D1000440103F16004745041F2640103F1800422
:104D200074508049C6F8C01F6FF07F41C6F8C41F99
:104D300001F5D431C131C6F8C81F732186F8EE1FC2
:104D4000742186F8EF1F7D49C6F8D01F7C49C6F84C
:104D5000D41F062186F8E61F40F2DC51A6F8E41FB6
:104D600041F210047749C3F8881041F284010351DD
:104D7000754C73504FF0004341F20C01C4F8703C85
:104D8000C4F8903CC4F8B03CC4F8D03CC4F8F03C43
:104D900004F54763C4F86C3CC4F8FC3C435004F58C
:104DA000516104F5496301F2F450C4F8781CC4F869
:104DB0007C3C04F54B6103F66843C4F8980CC4F8D6
:104DC0009C1C04F54D606149C4F8B83C04F54F6380
:104DD000C4F8BC0CC4F8D81C5D48C4F8DC3C0BF625
:104DE000E80144F2F453C4F8F80CCBF8E418C4F822
:104DF000743CC4F8943CC4F8B43CC4F8D43CC4F843
:104E0000F43C444B434C03EB42110132D1F8F83FE0
:104E1000052A43F44003C1F8F83FF2D1464B4D4A0E
:104E20001968059241F0080141F218021960995879
:104E300049484A4DDFF83891DFF8388141F4801154
:104E40009950196841F004011960995841F40051D2
:104E50009950995841F002019950026804F6BC71CA
:104E600004F57C6300932960C4F8BC2F332504F655
:104E7000E772016084F8ED5F08461146FCF716FE04
:104E8000374800F0BDFD374B364A5B69314883F443
:104E900000535361FFF786F90021054614A8FEF779
:104EA0001DFF00F0FC0242F00202002114A8FEF7F0
:104EB000F7FE9620FFF744F99DF854409DF85660A0
:104EC000EDB2A54228BF2546002E40F06981641B43
:104ED000E4B222462946244800F092FD31469DF86E
:104EE0005100FFF707F96E1EA020FCF7AFFDF6B2E8
:104EF00065B1059B013633441E46164B05931D468E
:104F000015F8010BFCF7A2FDB542F9D1DCB333E093
:104F100080730008F0660020E8000020A902000865
:104F2000F0000020C0A80121E8760020887700204A
:104F300040800240DCB30020008002404D30000879
:104F400005190008588F0020E0880020CCA7002019
:104F5000C0AD00200C000020C8BA0020CCBA002050
:104F600090730008000C0240A4730008D0AA00202F
:104F7000C8B30020EC0000200020013CFCF766FDD7
:104F800014F0FF04F8D101219DF85100FFF7B2F8A9
:104F900001219DF85000FFF7ADF80F20FFF7D0F882
:104FA00000219DF85000FFF7A5F8D9F80050012323
:104FB0000FAA082114A8FEF7D3FE9DF83C10044662
:104FC00001F00F0399480A0900F01AFD14F0300FA0
:104FD00000F0C6807022072114A8FEF761FE9449F4
:104FE000944A10F0200FC0F380130CBF08461046FF
:104FF0008DF8553000F004FD9DF85530002B40F041
:10500000F880002114A8FEF769FE002100F0FD02DF
:1050100014A8FEF745FE14A8FEF732FE864BD3F81F
:105020006C4C2368002BC0F2A6802368DB0540F19E
:10503000A280DBF8E4586C60AB680133AB60236896
:10504000AA68012A40F223832A6897687A49E268AD
:10505000C1F86C2CC3F30D43191F032289B210460B
:10506000FEF73CFC064678B105464FF0000A6A8917
:10507000686807EB0A0100F002FC6B892D689A440E
:10508000002DF4D1DBF8E458AB68012BAB6888BF86
:105090002C6843B100234FF000412160E468AA6806
:1050A00001339A42F9D80023AB60644B1B681806A1
:1050B00005D5624A80231360614B00221A604EB10D
:1050C000604B6149D3F8CC3F3046984710B1304629
:1050D000FDF724FAD9F80070DBF800395B4AFB1AB7
:1050E000F92B00F2C580DBF808395849FB1A41F268
:1050F000873293427FF6C7AE554DC1F80879A5F1C6
:105100000F0404F1C806002707E0012A30D0143448
:10511000B44205F114053FF4B6AEE37BA27B013344
:10512000DBB2022AE373F0D1EF2BF0D955F80F0C64
:1051300018B1FDF7BBFE45F80F7CA773E7E7454ABA
:1051400045491A448A427FF6F5AB444A44491A4419
:105150008A4294BF45F0040545F01005FFF7EABB0D
:10516000D9F800305B1BB3F5FA6FFFF420AF31E7DD
:10517000012BDBD8CBE72368002B25DB23689F05B9
:1051800022D5236813F480731ED1DBF8E428146061
:10519000536001239360284AE368C2F86C3C99E7A6
:1051A000002229462F4800F02BFC00219DF85100D9
:1051B000FEF7A0FF6E1EA020FCF748FCF6B200240C
:1051C000002D7FF496AEDEE62368002B82DB236899
:1051D0009E053FF57FAF2368DD053FF57BAFDBF82C
:1051E000E428936801339360134AE368C2F86C3C87
:1051F00070E700219DF85100FEF77CFF6020FCF76E
:1052000025FCFF20FCF722FC012104469DF85100FB
:10521000FEF770FF14488DF8574000F0F1FB9DF841
:105220005710124800F0ECFBEBE600BFC473000817
:105230005C72000854720008E0880020149002405C
:1052400008900240F0660020AC760020D0AA002032
:10525000EBB9002000796CFCFF596202001F0AFACA
:105260007FF0FA02A4730008F073000800740008CD
:10527000B64BC2F800791C68ACB1E06F002302465F
:10528000214640B1D4F88450002D00F0BD81606902
:10529000A84700B9E06794F82230DA0700F1EB8004
:1052A000E468002CE9D19BF804390133DBB2D9075B
:1052B0008BF804397FF517AFA44AD8F8003014688A
:1052C0000133C8F80030002C00F0A7800697079F34
:1052D0000026237C94F84A20022B00F0AE810C2A91
:1052E00000F0B48194F89C10002900F03781781800
:1052F000D4F8982090F87F0001328242C4F89820B8
:10530000C0F089810629D4F878A04FF0000298BF38
:105310000131C4F8982098BF84F89C10BAF1000FAE
:1053200000F0C281DAF810309B89DB0540F19B81E7
:10533000BAF80C20002A40F0968114210120FEF7D3
:10534000CDFA0546002800F0AD81DAF81030696822
:105350005A682046FCF75EFE838923F47C5343F4AD
:10536000885383814FF0060E0022E37A21468DE8B0
:1053700004402846221DFCF731FE2846FDF7CEF8F2
:10538000237C0025062B00F032812289100740F192
:10539000AF80042B02D0072B40F0AA80D4F894C031
:1053A0006B49206B0CF5242202F6B842A1FB0212D5
:1053B000D8F80010C0EB010EBEEB521F69D90135C1
:1053C000032BEDB24FF0010A00F09780092B40F05B
:1053D0002481D8F80030226B9B1AF02B40F2948085
:1053E0002046FDF719F9E368002E00F02381F360F1
:1053F000D4F890301BB16FF0040160699847BAF19E
:10540000000F40F02581E368214602201C46FEF78C
:10541000DDF9002C7FF45DAF069F4E4B1C68002C1D
:105420003FF461AED8F80030226B9B1AF02B4FF09E
:1054300000051BD9237C012B04D90A2B02D020465E
:10544000FDF7EAF8E368002D00F02781EB60E368E0
:10545000214602201C46FEF7B9F9002C3FF443AE6A
:10546000D8F80030226B9B1AF02BE3D82546E4686D
:10547000002CF5D137E643F0020384F822302046B1
:10548000FDF790FF94F8223023F0030384F82230D4
:1054900006E7314994F89D2001FB02C22C49A1FB8B
:1054A0000212BEEB521F23D9002214210120FEF765
:1054B00015FA8246B0B1A06D0138FEF73FFDDAF86B
:1054C000041002462046FCF7A5FD00210622E37ADF
:1054D00050468DE80600221D2146FCF77FFD504610
:1054E000FDF71CF894F89D20237C013284F89D2060
:1054F0004FF0000A032B7FF469AFD8F80030226B1D
:105500009B1A282B3FF66CAF002D7FF469AF94F8FF
:10551000343094F835200133DBB29A4284F83430C9
:105520000ED8D4F88C304FF0000284F83420002BD1
:1055300000F0AF80214660699847002800F0A980FC
:105540002646E468002C7FF4C4AE65E7E80000203E
:10555000D34D6210F4000020F8240100E18E0D0408
:105560005CBF0131E186A16F002900F09980B4F998
:105570003650B4F9480085424DDB022B0BD03A443B
:10558000B4F94430B4F9460092F8882000EBE30304
:105590009340A4F84830B4F85200B4F85C30228F3D
:1055A000A4F85220834228BF03465B089342A4F824
:1055B00054304FF000053CBF5300A4F85430E5864A
:1055C0000B4600E02B461D68002DFBD1626F1A6070
:1055D00094F84A306167013384F84A30A567E5637F
:1055E0002046FDF7DFFE237C062B7FF4CEAED8F8F5
:1055F0000030226B9B1A282B01D90135EDB2002D0A
:1056000085D04FF0000AEBE602462B46284621469D
:10561000FDF7B4F83DE60025B4E6002D3FF477AF82
:10562000012B7FF6E0AE0A2B7FF4DAAEE368002EA2
:105630007FF4DDAE244A1360DAE6062A02D00C2A93
:105640007FF450AE01254FF0000A53E7012599E69B
:10565000238C616AA06D0193238B00932246231D46
:10566000FDF730FECFE6002215210120FEF736F9C6
:105670000546B8B1DAF8103069685A682046FCF778
:10568000C9FCDAF808206B6812781A756AE6A76810
:10569000DCE42046FDF786FE52E70C4A1360D7E6AD
:1056A0000D466FE6237C6DE6D4F874A05546BAF13A
:1056B000000F3FF467AE35E64FF42062FFF7CAB93A
:1056C0004FF48442FFF7C6B9E8000020F400002040
:1056D0002DE9F041856FFDB12B68476F8367044664
:1056E00000F174067FB13B695868FEF727FC2B690F
:1056F00080465868FEF722FCC0EB0800002802DA5A
:1057000036683768EEE72F60356094F84A3000223B
:10571000013384F84A30E263BDE8F081002103E000
:105720000B4B5B58435004310A480B4B42189A42CA
:10573000F6D30A4A02E0002342F8043B084B9A429F
:10574000F9D3FEF71BFA00F055F8FEF789FD704714
:105750000475000800000020A8000020B000002010
:10576000F4BA0020FEE700F073B810B5002814BFAB
:1057700004460124204600F063F830B900F016F822
:1057800008B900F01BF88047F4E710BD064BBFF3E3
:105790005F8F024653E8000F43E800210029F9D14A
:1057A000BFF35F8F704700BFE0BA0020024B18685C
:1057B000BFF35F8F704700BFE0BA002008B5062036
:1057C00000F0C4F9012001F095FE000008B5074B78
:1057D000044613B10021AFF30080054B1868836ABB
:1057E00003B19847204601F085FE00BF000000008D
:1057F0004074000870B50E4B0E4CE41AA41000253E
:105800001E46A54204D056F8253098470135F8E7E2
:1058100001F064FE084C094BE41AA41000251E4652
:10582000A54204D056F8253098470135F8E770BDF9
:10583000FC740008FC74000800750008FC74000883
:10584000024B0146186800F073B800BFA4000020A6
:10585000024B0146186800F025B800BFA4000020E4
:1058600010B501390244904207D010F8013B11F8FD
:10587000014FA342F7D0181B10BD002010BD10B57A
:10588000431E0A44914204D011F8014B03F8014F22
:10589000F8E710BD02440346934202D003F8011B0F
:1058A000FAE7704730B500293ED051F8042C0B1FA1
:1058B0001E49002AB8BF9B180A680C4612B95A60E4
:1058C0000B6030BD9A420ED919685818824204BF45
:1058D000106852685A6004BF09181960236030BD0F
:1058E000994203D80A4651680029F9D1146815195C
:1058F0009D420AD11B682344D0188142136013D102
:105900000868034413604B680DE002D90C23036060
:1059100030BD18681C18A14204BF0C684968596062
:1059200004BF00191860536030BD00BFE8BA002002
:1059300070B5CD1C25F0030508350C2D38BF0C259E
:10594000002D064603DA0C233360002070BDA94207
:10595000F9D81F4B1C681A462146A1B10B685B1B86
:105960000ED40B2B03D90B60CC18CD501EE08C420B
:105970000DBF63684B686360136018BF0C4615E089
:105980000C464968E9E7134C23681BB9304600F020
:105990004FF820602946304600F04AF8431CD2D028
:1059A000C41C24F00304A0420AD1256004F10B00BA
:1059B000231D20F00700C31A09D05A42E25070BDDF
:1059C000211A304600F034F80130EED1BBE770BD4B
:1059D000E8BA0020E4BA00200EB417B5044618B1A6
:1059E00083690BB900F072F906AB059AA1680193BF
:1059F000204600F02DFC03B0BDE8104003B0704716
:105A00000FB40A4B13B51C6824B1A36913B920461F
:105A100000F05CF905AB049AA1680193204600F000
:105A200017FC02B0BDE8104004B07047A40000208D
:105A300038B5064C002305460846236001F080FB7C
:105A4000431C02D1236803B12B6038BDF0BA00209B
:105A500038B5446C05460CB1002038BD8021FFF7F5
:105A600067FF686438B1234621466A6CD15004331D
:105A7000802BFAD1F0E74FF0FF3038BD1F2970B509
:105A800004460D46164602D9162303600BE0436C0C
:105A90002BB1636C53F8250043F8256070BDFFF708
:105AA000D7FF0028F5D04FF0FF3070BD1F2938B563
:105AB00004460D4604D9162303604FF0FF3038BD6D
:105AC000426C12B152F821304BB9204600F06EF80A
:105AD0002A4601462046BDE8384000F055B8012B63
